{
  "_format": "hh-sol-artifact-1",
  "contractName": "MyEpicNFT",
  "sourceName": "contracts/MyEpicNFT.sol",
  "abi": [
    {
      "inputs": [],
      "stateMutability": "nonpayable",
      "type": "constructor"
    },
    {
      "anonymous": false,
      "inputs": [
        {
          "indexed": true,
          "internalType": "address",
          "name": "owner",
          "type": "address"
        },
        {
          "indexed": true,
          "internalType": "address",
          "name": "approved",
          "type": "address"
        },
        {
          "indexed": true,
          "internalType": "uint256",
          "name": "tokenId",
          "type": "uint256"
        }
      ],
      "name": "Approval",
      "type": "event"
    },
    {
      "anonymous": false,
      "inputs": [
        {
          "indexed": true,
          "internalType": "address",
          "name": "owner",
          "type": "address"
        },
        {
          "indexed": true,
          "internalType": "address",
          "name": "operator",
          "type": "address"
        },
        {
          "indexed": false,
          "internalType": "bool",
          "name": "approved",
          "type": "bool"
        }
      ],
      "name": "ApprovalForAll",
      "type": "event"
    },
    {
      "anonymous": false,
      "inputs": [
        {
          "indexed": false,
          "internalType": "address",
          "name": "sender",
          "type": "address"
        },
        {
          "indexed": false,
          "internalType": "uint256",
          "name": "tokenId",
          "type": "uint256"
        }
      ],
      "name": "NewEpicNFTMinted",
      "type": "event"
    },
    {
      "anonymous": false,
      "inputs": [
        {
          "indexed": true,
          "internalType": "address",
          "name": "from",
          "type": "address"
        },
        {
          "indexed": true,
          "internalType": "address",
          "name": "to",
          "type": "address"
        },
        {
          "indexed": true,
          "internalType": "uint256",
          "name": "tokenId",
          "type": "uint256"
        }
      ],
      "name": "Transfer",
      "type": "event"
    },
    {
      "inputs": [
        {
          "internalType": "address",
          "name": "to",
          "type": "address"
        },
        {
          "internalType": "uint256",
          "name": "tokenId",
          "type": "uint256"
        }
      ],
      "name": "approve",
      "outputs": [],
      "stateMutability": "nonpayable",
      "type": "function"
    },
    {
      "inputs": [
        {
          "internalType": "address",
          "name": "owner",
          "type": "address"
        }
      ],
      "name": "balanceOf",
      "outputs": [
        {
          "internalType": "uint256",
          "name": "",
          "type": "uint256"
        }
      ],
      "stateMutability": "view",
      "type": "function"
    },
    {
      "inputs": [
        {
          "internalType": "uint256",
          "name": "tokenId",
          "type": "uint256"
        }
      ],
      "name": "getApproved",
      "outputs": [
        {
          "internalType": "address",
          "name": "",
          "type": "address"
        }
      ],
      "stateMutability": "view",
      "type": "function"
    },
    {
      "inputs": [],
      "name": "getTotalNFTsMintedSoFar",
      "outputs": [
        {
          "internalType": "uint256",
          "name": "",
          "type": "uint256"
        }
      ],
      "stateMutability": "nonpayable",
      "type": "function"
    },
    {
      "inputs": [
        {
          "internalType": "address",
          "name": "owner",
          "type": "address"
        },
        {
          "internalType": "address",
          "name": "operator",
          "type": "address"
        }
      ],
      "name": "isApprovedForAll",
      "outputs": [
        {
          "internalType": "bool",
          "name": "",
          "type": "bool"
        }
      ],
      "stateMutability": "view",
      "type": "function"
    },
    {
      "inputs": [],
      "name": "makeAnEpicNFT",
      "outputs": [],
      "stateMutability": "nonpayable",
      "type": "function"
    },
    {
      "inputs": [],
      "name": "name",
      "outputs": [
        {
          "internalType": "string",
          "name": "",
          "type": "string"
        }
      ],
      "stateMutability": "view",
      "type": "function"
    },
    {
      "inputs": [
        {
          "internalType": "uint256",
          "name": "tokenId",
          "type": "uint256"
        }
      ],
      "name": "ownerOf",
      "outputs": [
        {
          "internalType": "address",
          "name": "",
          "type": "address"
        }
      ],
      "stateMutability": "view",
      "type": "function"
    },
    {
      "inputs": [
        {
          "internalType": "uint256",
          "name": "tokenId",
          "type": "uint256"
        }
      ],
      "name": "pickRandomFirstWord",
      "outputs": [
        {
          "internalType": "string",
          "name": "",
          "type": "string"
        }
      ],
      "stateMutability": "view",
      "type": "function"
    },
    {
      "inputs": [
        {
          "internalType": "uint256",
          "name": "tokenId",
          "type": "uint256"
        }
      ],
      "name": "pickRandomSecondWord",
      "outputs": [
        {
          "internalType": "string",
          "name": "",
          "type": "string"
        }
      ],
      "stateMutability": "view",
      "type": "function"
    },
    {
      "inputs": [
        {
          "internalType": "uint256",
          "name": "tokenId",
          "type": "uint256"
        }
      ],
      "name": "pickRandomThirdWord",
      "outputs": [
        {
          "internalType": "string",
          "name": "",
          "type": "string"
        }
      ],
      "stateMutability": "view",
      "type": "function"
    },
    {
      "inputs": [
        {
          "internalType": "address",
          "name": "from",
          "type": "address"
        },
        {
          "internalType": "address",
          "name": "to",
          "type": "address"
        },
        {
          "internalType": "uint256",
          "name": "tokenId",
          "type": "uint256"
        }
      ],
      "name": "safeTransferFrom",
      "outputs": [],
      "stateMutability": "nonpayable",
      "type": "function"
    },
    {
      "inputs": [
        {
          "internalType": "address",
          "name": "from",
          "type": "address"
        },
        {
          "internalType": "address",
          "name": "to",
          "type": "address"
        },
        {
          "internalType": "uint256",
          "name": "tokenId",
          "type": "uint256"
        },
        {
          "internalType": "bytes",
          "name": "data",
          "type": "bytes"
        }
      ],
      "name": "safeTransferFrom",
      "outputs": [],
      "stateMutability": "nonpayable",
      "type": "function"
    },
    {
      "inputs": [
        {
          "internalType": "address",
          "name": "operator",
          "type": "address"
        },
        {
          "internalType": "bool",
          "name": "approved",
          "type": "bool"
        }
      ],
      "name": "setApprovalForAll",
      "outputs": [],
      "stateMutability": "nonpayable",
      "type": "function"
    },
    {
      "inputs": [
        {
          "internalType": "bytes4",
          "name": "interfaceId",
          "type": "bytes4"
        }
      ],
      "name": "supportsInterface",
      "outputs": [
        {
          "internalType": "bool",
          "name": "",
          "type": "bool"
        }
      ],
      "stateMutability": "view",
      "type": "function"
    },
    {
      "inputs": [],
      "name": "symbol",
      "outputs": [
        {
          "internalType": "string",
          "name": "",
          "type": "string"
        }
      ],
      "stateMutability": "view",
      "type": "function"
    },
    {
      "inputs": [
        {
          "internalType": "uint256",
          "name": "tokenId",
          "type": "uint256"
        }
      ],
      "name": "tokenURI",
      "outputs": [
        {
          "internalType": "string",
          "name": "",
          "type": "string"
        }
      ],
      "stateMutability": "view",
      "type": "function"
    },
    {
      "inputs": [
        {
          "internalType": "address",
          "name": "from",
          "type": "address"
        },
        {
          "internalType": "address",
          "name": "to",
          "type": "address"
        },
        {
          "internalType": "uint256",
          "name": "tokenId",
          "type": "uint256"
        }
      ],
      "name": "transferFrom",
      "outputs": [],
      "stateMutability": "nonpayable",
      "type": "function"
    }
  ],
  "bytecode": "0x608060405260405180610160016040528061012f8152602001620041be61012f9139600890805190602001906200003892919062000683565b506040518060c001604052806040518060400160405280600881526020017f6d63646f6e616c6400000000000000000000000000000000000000000000000081525081526020016040518060400160405280600381526020017f6b6663000000000000000000000000000000000000000000000000000000000081525081526020016040518060400160405280600781526020017f726f6e616c646f0000000000000000000000000000000000000000000000000081525081526020016040518060400160405280600581526020017f6d6573736900000000000000000000000000000000000000000000000000000081525081526020016040518060400160405280600681526020017f72697a77616e000000000000000000000000000000000000000000000000000081525081526020016040518060400160405280600481526020017f6c696b65000000000000000000000000000000000000000000000000000000008152508152506009906006620001b692919062000714565b506040518060c001604052806040518060400160405280600581526020017f6b6f686c6900000000000000000000000000000000000000000000000000000081525081526020016040518060400160405280600881526020017f7368616872756b6800000000000000000000000000000000000000000000000081525081526020016040518060400160405280600781526020017f76656e747572650000000000000000000000000000000000000000000000000081525081526020016040518060400160405280600481526020017f646976650000000000000000000000000000000000000000000000000000000081525081526020016040518060400160405280600881526020017f6461776c656e636500000000000000000000000000000000000000000000000081525081526020016040518060400160405280600281526020017f4850000000000000000000000000000000000000000000000000000000000000815250815250600a9060066200033492919062000714565b506040518060c001604052806040518060400160405280600481526020017f64656c6c0000000000000000000000000000000000000000000000000000000081525081526020016040518060400160405280600581526020017f776174636800000000000000000000000000000000000000000000000000000081525081526020016040518060400160405280600481526020017f6b68616e0000000000000000000000000000000000000000000000000000000081525081526020016040518060400160405280600581526020017f6e6177617a00000000000000000000000000000000000000000000000000000081525081526020016040518060400160405280600781526020017f64696c617761720000000000000000000000000000000000000000000000000081525081526020016040518060400160405280600481526020017f6d6f656e00000000000000000000000000000000000000000000000000000000815250815250600b906006620004b292919062000714565b506000600c55348015620004c557600080fd5b506040518060400160405280600c81526020017f46697273744e465450726f6a00000000000000000000000000000000000000008152506040518060400160405280600581526020017f4d794e465400000000000000000000000000000000000000000000000000000081525081600090805190602001906200054a92919062000683565b5080600190805190602001906200056392919062000683565b505050620005b16040518060400160405280601e81526020017f54686973206973206d79204e465420636f6e74726163742e20576f6168210000815250620005b760201b620010db1760201c565b62000935565b6200065781604051602401620005ce919062000849565b6040516020818303038152906040527f41304fac000000000000000000000000000000000000000000000000000000007bffffffffffffffffffffffffffffffffffffffffffffffffffffffff19166020820180517bffffffffffffffffffffffffffffffffffffffffffffffffffffffff83818316178352505050506200065a60201b60201c565b50565b60008151905060006a636f6e736f6c652e6c6f679050602083016000808483855afa5050505050565b8280546200069190620008bf565b90600052602060002090601f016020900481019282620006b5576000855562000701565b82601f10620006d057805160ff191683800117855562000701565b8280016001018555821562000701579182015b8281111562000700578251825591602001919060010190620006e3565b5b5090506200071091906200077b565b5090565b82805482825590600052602060002090810192821562000768579160200282015b82811115620007675782518290805190602001906200075692919062000683565b509160200191906001019062000735565b5b5090506200077791906200079a565b5090565b5b80821115620007965760008160009055506001016200077c565b5090565b5b80821115620007be5760008181620007b49190620007c2565b506001016200079b565b5090565b508054620007d090620008bf565b6000825580601f10620007e4575062000805565b601f0160209004906000526020600020908101906200080491906200077b565b5b50565b600062000815826200086d565b62000821818562000878565b93506200083381856020860162000889565b6200083e8162000924565b840191505092915050565b6000602082019050818103600083015262000865818462000808565b905092915050565b600081519050919050565b600082825260208201905092915050565b60005b83811015620008a95780820151818401526020810190506200088c565b83811115620008b9576000848401525b50505050565b60006002820490506001821680620008d857607f821691505b60208210811415620008ef57620008ee620008f5565b5b50919050565b7f4e487b7100000000000000000000000000000000000000000000000000000000600052602260045260246000fd5b6000601f19601f8301169050919050565b61387980620009456000396000f3fe608060405234801561001057600080fd5b50600436106101165760003560e01c806370a08231116100a2578063b88d4fde11610071578063b88d4fde14610305578063c575757a14610321578063c87b56dd14610351578063de9d132f14610381578063e985e9c51461038b57610116565b806370a082311461026b57806395d89b411461029b578063a22cb465146102b9578063b187301f146102d557610116565b8063095ea7b3116100e9578063095ea7b3146101b757806323b872dd146101d35780632de38d68146101ef57806342842e0e1461021f5780636352211e1461023b57610116565b806301ffc9a71461011b578063060475901461014b57806306fdde0314610169578063081812fc14610187575b600080fd5b61013560048036038101906101309190612563565b6103bb565b6040516101429190612c04565b60405180910390f35b61015361049d565b6040516101609190612e1f565b60405180910390f35b6101716104b2565b60405161017e9190612c1f565b60405180910390f35b6101a1600480360381019061019c91906125b5565b610544565b6040516101ae9190612b74565b60405180910390f35b6101d160048036038101906101cc9190612527565b61058a565b005b6101ed60048036038101906101e89190612421565b6106a2565b005b610209600480360381019061020491906125b5565b610702565b6040516102169190612c1f565b60405180910390f35b61023960048036038101906102349190612421565b610820565b005b610255600480360381019061025091906125b5565b610840565b6040516102629190612b74565b60405180910390f35b610285600480360381019061028091906123bc565b6108f2565b6040516102929190612e1f565b60405180910390f35b6102a36109aa565b6040516102b09190612c1f565b60405180910390f35b6102d360048036038101906102ce91906124eb565b610a3c565b005b6102ef60048036038101906102ea91906125b5565b610a52565b6040516102fc9190612c1f565b60405180910390f35b61031f600480360381019061031a9190612470565b610b70565b005b61033b600480360381019061033691906125b5565b610bd2565b6040516103489190612c1f565b60405180910390f35b61036b600480360381019061036691906125b5565b610cf0565b6040516103789190612c1f565b60405180910390f35b610389610e03565b005b6103a560048036038101906103a091906123e5565b611047565b6040516103b29190612c04565b60405180910390f35b60007f80ac58cd000000000000000000000000000000000000000000000000000000007bffffffffffffffffffffffffffffffffffffffffffffffffffffffff1916827bffffffffffffffffffffffffffffffffffffffffffffffffffffffff1916148061048657507f5b5e139f000000000000000000000000000000000000000000000000000000007bffffffffffffffffffffffffffffffffffffffffffffffffffffffff1916827bffffffffffffffffffffffffffffffffffffffffffffffffffffffff1916145b80610496575061049582611174565b5b9050919050565b60006104aa600c546111de565b600c54905090565b6060600080546104c1906130b3565b80601f01602080910402602001604051908101604052809291908181526020018280546104ed906130b3565b801561053a5780601f1061050f5761010080835404028352916020019161053a565b820191906000526020600020905b81548152906001019060200180831161051d57829003601f168201915b5050505050905090565b600061054f82611277565b6004600083815260200190815260200160002060009054906101000a900473ffffffffffffffffffffffffffffffffffffffff169050919050565b600061059582610840565b90508073ffffffffffffffffffffffffffffffffffffffff168373ffffffffffffffffffffffffffffffffffffffff161415610606576040517f08c379a00000000000000000000000000000000000000000000000000000000081526004016105fd90612dbf565b60405180910390fd5b8073ffffffffffffffffffffffffffffffffffffffff166106256112c2565b73ffffffffffffffffffffffffffffffffffffffff16148061065457506106538161064e6112c2565b611047565b5b610693576040517f08c379a000000000000000000000000000000000000000000000000000000000815260040161068a90612d5f565b60405180910390fd5b61069d83836112ca565b505050565b6106b36106ad6112c2565b82611383565b6106f2576040517f08c379a00000000000000000000000000000000000000000000000000000000081526004016106e990612dff565b60405180910390fd5b6106fd838383611418565b505050565b606060006107366107128461167f565b6040516020016107229190612b30565b60405160208183030381529060405261182c565b905060098054905081610749919061315f565b905060098181548110610785577f4e487b7100000000000000000000000000000000000000000000000000000000600052603260045260246000fd5b90600052602060002001805461079a906130b3565b80601f01602080910402602001604051908101604052809291908181526020018280546107c6906130b3565b80156108135780601f106107e857610100808354040283529160200191610813565b820191906000526020600020905b8154815290600101906020018083116107f657829003601f168201915b5050505050915050919050565b61083b83838360405180602001604052806000815250610b70565b505050565b6000806002600084815260200190815260200160002060009054906101000a900473ffffffffffffffffffffffffffffffffffffffff169050600073ffffffffffffffffffffffffffffffffffffffff168173ffffffffffffffffffffffffffffffffffffffff1614156108e9576040517f08c379a00000000000000000000000000000000000000000000000000000000081526004016108e090612d9f565b60405180910390fd5b80915050919050565b60008073ffffffffffffffffffffffffffffffffffffffff168273ffffffffffffffffffffffffffffffffffffffff161415610963576040517f08c379a000000000000000000000000000000000000000000000000000000000815260040161095a90612d1f565b60405180910390fd5b600360008373ffffffffffffffffffffffffffffffffffffffff1673ffffffffffffffffffffffffffffffffffffffff168152602001908152602001600020549050919050565b6060600180546109b9906130b3565b80601f01602080910402602001604051908101604052809291908181526020018280546109e5906130b3565b8015610a325780601f10610a0757610100808354040283529160200191610a32565b820191906000526020600020905b815481529060010190602001808311610a1557829003601f168201915b5050505050905090565b610a4e610a476112c2565b838361185f565b5050565b60606000610a86610a628461167f565b604051602001610a729190612ac9565b60405160208183030381529060405261182c565b9050600a8054905081610a99919061315f565b9050600a8181548110610ad5577f4e487b7100000000000000000000000000000000000000000000000000000000600052603260045260246000fd5b906000526020600020018054610aea906130b3565b80601f0160208091040260200160405190810160405280929190818152602001828054610b16906130b3565b8015610b635780601f10610b3857610100808354040283529160200191610b63565b820191906000526020600020905b815481529060010190602001808311610b4657829003601f168201915b5050505050915050919050565b610b81610b7b6112c2565b83611383565b610bc0576040517f08c379a0000000000000000000000000000000000000000000000000000000008152600401610bb790612dff565b60405180910390fd5b610bcc848484846119cc565b50505050565b60606000610c06610be28461167f565b604051602001610bf29190612aa7565b60405160208183030381529060405261182c565b9050600b8054905081610c19919061315f565b9050600b8181548110610c55577f4e487b7100000000000000000000000000000000000000000000000000000000600052603260045260246000fd5b906000526020600020018054610c6a906130b3565b80601f0160208091040260200160405190810160405280929190818152602001828054610c96906130b3565b8015610ce35780601f10610cb857610100808354040283529160200191610ce3565b820191906000526020600020905b815481529060010190602001808311610cc657829003601f168201915b5050505050915050919050565b6060610cfb82611277565b6000600660008481526020019081526020016000208054610d1b906130b3565b80601f0160208091040260200160405190810160405280929190818152602001828054610d47906130b3565b8015610d945780601f10610d6957610100808354040283529160200191610d94565b820191906000526020600020905b815481529060010190602001808311610d7757829003601f168201915b505050505090506000610da5611a28565b9050600081511415610dbb578192505050610dfe565b600082511115610df0578082604051602001610dd8929190612a23565b60405160208183030381529060405292505050610dfe565b610df984611a3f565b925050505b919050565b6000610e0f6007611aa7565b90506000610e1c82610702565b90506000610e2983610a52565b90506000610e3684610bd2565b90506000838383604051602001610e4f93929190612a47565b60405160208183030381529060405290506000600882604051602001610e76929190612a78565b6040516020818303038152906040529050600a600c5410610ecc576040517f08c379a0000000000000000000000000000000000000000000000000000000008152600401610ec390612ddf565b60405180910390fd5b6000610f0083610edb84611ab5565b604051602001610eec929190612aeb565b604051602081830303815290604052611ab5565b9050600081604051602001610f159190612b52565b6040516020818303038152906040529050610f646040518060400160405280601581526020017f0a2d2d2d2d2d2d2d2d2d2d2d2d2d2d2d2d2d2d2d2d00000000000000000000008152506110db565b610f6d816110db565b610fab6040518060400160405280601581526020017f2d2d2d2d2d2d2d2d2d2d2d2d2d2d2d2d2d2d2d2d0a00000000000000000000008152506110db565b610fb53389611c73565b610fbf8882611c91565b610fc96007611d05565b610fec6040518060600160405280602581526020016137df602591398933611d1b565b600c6000815480929190610fff90613116565b91905055507febb98688741ffa4c7589bf325de30cf7becb63de567842e1ccdb6cb949fdc82c3389604051611035929190612bdb565b60405180910390a15050505050505050565b6000600560008473ffffffffffffffffffffffffffffffffffffffff1673ffffffffffffffffffffffffffffffffffffffff16815260200190815260200160002060008373ffffffffffffffffffffffffffffffffffffffff1673ffffffffffffffffffffffffffffffffffffffff16815260200190815260200160002060009054906101000a900460ff16905092915050565b611171816040516024016110ef9190612c1f565b6040516020818303038152906040527f41304fac000000000000000000000000000000000000000000000000000000007bffffffffffffffffffffffffffffffffffffffffffffffffffffffff19166020820180517bffffffffffffffffffffffffffffffffffffffffffffffffffffffff8381831617835250505050611dba565b50565b60007f01ffc9a7000000000000000000000000000000000000000000000000000000007bffffffffffffffffffffffffffffffffffffffffffffffffffffffff1916827bffffffffffffffffffffffffffffffffffffffffffffffffffffffff1916149050919050565b611274816040516024016111f29190612e1f565b6040516020818303038152906040527ff5b1bba9000000000000000000000000000000000000000000000000000000007bffffffffffffffffffffffffffffffffffffffffffffffffffffffff19166020820180517bffffffffffffffffffffffffffffffffffffffffffffffffffffffff8381831617835250505050611dba565b50565b61128081611de3565b6112bf576040517f08c379a00000000000000000000000000000000000000000000000000000000081526004016112b690612d9f565b60405180910390fd5b50565b600033905090565b816004600083815260200190815260200160002060006101000a81548173ffffffffffffffffffffffffffffffffffffffff021916908373ffffffffffffffffffffffffffffffffffffffff160217905550808273ffffffffffffffffffffffffffffffffffffffff1661133d83610840565b73ffffffffffffffffffffffffffffffffffffffff167f8c5be1e5ebec7d5bd14f71427d1e84f3dd0314c0f7b2291e5b200ac8c7c3b92560405160405180910390a45050565b60008061138f83610840565b90508073ffffffffffffffffffffffffffffffffffffffff168473ffffffffffffffffffffffffffffffffffffffff1614806113d157506113d08185611047565b5b8061140f57508373ffffffffffffffffffffffffffffffffffffffff166113f784610544565b73ffffffffffffffffffffffffffffffffffffffff16145b91505092915050565b8273ffffffffffffffffffffffffffffffffffffffff1661143882610840565b73ffffffffffffffffffffffffffffffffffffffff161461148e576040517f08c379a000000000000000000000000000000000000000000000000000000000815260040161148590612c9f565b60405180910390fd5b600073ffffffffffffffffffffffffffffffffffffffff168273ffffffffffffffffffffffffffffffffffffffff1614156114fe576040517f08c379a00000000000000000000000000000000000000000000000000000000081526004016114f590612cdf565b60405180910390fd5b611509838383611e4f565b6115146000826112ca565b6001600360008573ffffffffffffffffffffffffffffffffffffffff1673ffffffffffffffffffffffffffffffffffffffff16815260200190815260200160002060008282546115649190612fc9565b925050819055506001600360008473ffffffffffffffffffffffffffffffffffffffff1673ffffffffffffffffffffffffffffffffffffffff16815260200190815260200160002060008282546115bb9190612ee8565b92505081905550816002600083815260200190815260200160002060006101000a81548173ffffffffffffffffffffffffffffffffffffffff021916908373ffffffffffffffffffffffffffffffffffffffff160217905550808273ffffffffffffffffffffffffffffffffffffffff168473ffffffffffffffffffffffffffffffffffffffff167fddf252ad1be2c89b69c2b068fc378daa952ba7f163c4a11628f55a4df523b3ef60405160405180910390a461167a838383611e54565b505050565b606060008214156116c7576040518060400160405280600181526020017f30000000000000000000000000000000000000000000000000000000000000008152509050611827565b600082905060005b600082146116f95780806116e290613116565b915050600a826116f29190612f3e565b91506116cf565b60008167ffffffffffffffff81111561173b577f4e487b7100000000000000000000000000000000000000000000000000000000600052604160045260246000fd5b6040519080825280601f01601f19166020018201604052801561176d5781602001600182028036833780820191505090505b5090505b60008514611820576001826117869190612fc9565b9150600a85611795919061315f565b60306117a19190612ee8565b60f81b8183815181106117dd577f4e487b7100000000000000000000000000000000000000000000000000000000600052603260045260246000fd5b60200101907effffffffffffffffffffffffffffffffffffffffffffffffffffffffffffff1916908160001a905350600a856118199190612f3e565b9450611771565b8093505050505b919050565b60008160405160200161183f9190612a0c565b6040516020818303038152906040528051906020012060001c9050919050565b8173ffffffffffffffffffffffffffffffffffffffff168373ffffffffffffffffffffffffffffffffffffffff1614156118ce576040517f08c379a00000000000000000000000000000000000000000000000000000000081526004016118c590612cff565b60405180910390fd5b80600560008573ffffffffffffffffffffffffffffffffffffffff1673ffffffffffffffffffffffffffffffffffffffff16815260200190815260200160002060008473ffffffffffffffffffffffffffffffffffffffff1673ffffffffffffffffffffffffffffffffffffffff16815260200190815260200160002060006101000a81548160ff0219169083151502179055508173ffffffffffffffffffffffffffffffffffffffff168373ffffffffffffffffffffffffffffffffffffffff167f17307eab39ab6107e8899845ad3d59bd9653f200f220920489ca2b5937696c31836040516119bf9190612c04565b60405180910390a3505050565b6119d7848484611418565b6119e384848484611e59565b611a22576040517f08c379a0000000000000000000000000000000000000000000000000000000008152600401611a1990612c7f565b60405180910390fd5b50505050565b606060405180602001604052806000815250905090565b6060611a4a82611277565b6000611a54611a28565b90506000815111611a745760405180602001604052806000815250611a9f565b80611a7e8461167f565b604051602001611a8f929190612a23565b6040516020818303038152906040525b915050919050565b600081600001549050919050565b60606000825190506000811415611ade5760405180602001604052806000815250915050611c6e565b60006003600283611aef9190612ee8565b611af99190612f3e565b6004611b059190612f6f565b90506000602082611b169190612ee8565b67ffffffffffffffff811115611b55577f4e487b7100000000000000000000000000000000000000000000000000000000600052604160045260246000fd5b6040519080825280601f01601f191660200182016040528015611b875781602001600182028036833780820191505090505b5090506000604051806060016040528060408152602001613804604091399050600181016020830160005b86811015611c2b5760038101905062ffffff818a015116603f8160121c168401518060081b905060ff603f83600c1c1686015116810190508060081b905060ff603f8360061c1686015116810190508060081b905060ff603f831686015116810190508060e01b90508084526004840193505050611bb2565b506003860660018114611c455760028114611c5557611c60565b613d3d60f01b6002830352611c60565b603d60f81b60018303525b508484525050819450505050505b919050565b611c8d828260405180602001604052806000815250611ff0565b5050565b611c9a82611de3565b611cd9576040517f08c379a0000000000000000000000000000000000000000000000000000000008152600401611cd090612d3f565b60405180910390fd5b80600660008481526020019081526020016000209080519060200190611d00929190612248565b505050565b6001816000016000828254019250508190555050565b611db5838383604051602401611d3393929190612c41565b6040516020818303038152906040527fe3849f79000000000000000000000000000000000000000000000000000000007bffffffffffffffffffffffffffffffffffffffffffffffffffffffff19166020820180517bffffffffffffffffffffffffffffffffffffffffffffffffffffffff8381831617835250505050611dba565b505050565b60008151905060006a636f6e736f6c652e6c6f679050602083016000808483855afa5050505050565b60008073ffffffffffffffffffffffffffffffffffffffff166002600084815260200190815260200160002060009054906101000a900473ffffffffffffffffffffffffffffffffffffffff1673ffffffffffffffffffffffffffffffffffffffff1614159050919050565b505050565b505050565b6000611e7a8473ffffffffffffffffffffffffffffffffffffffff1661204b565b15611fe3578373ffffffffffffffffffffffffffffffffffffffff1663150b7a02611ea36112c2565b8786866040518563ffffffff1660e01b8152600401611ec59493929190612b8f565b602060405180830381600087803b158015611edf57600080fd5b505af1925050508015611f1057506040513d601f19601f82011682018060405250810190611f0d919061258c565b60015b611f93573d8060008114611f40576040519150601f19603f3d011682016040523d82523d6000602084013e611f45565b606091505b50600081511415611f8b576040517f08c379a0000000000000000000000000000000000000000000000000000000008152600401611f8290612c7f565b60405180910390fd5b805181602001fd5b63150b7a0260e01b7bffffffffffffffffffffffffffffffffffffffffffffffffffffffff1916817bffffffffffffffffffffffffffffffffffffffffffffffffffffffff191614915050611fe8565b600190505b949350505050565b611ffa838361206e565b6120076000848484611e59565b612046576040517f08c379a000000000000000000000000000000000000000000000000000000000815260040161203d90612c7f565b60405180910390fd5b505050565b6000808273ffffffffffffffffffffffffffffffffffffffff163b119050919050565b600073ffffffffffffffffffffffffffffffffffffffff168273ffffffffffffffffffffffffffffffffffffffff1614156120de576040517f08c379a00000000000000000000000000000000000000000000000000000000081526004016120d590612d7f565b60405180910390fd5b6120e781611de3565b15612127576040517f08c379a000000000000000000000000000000000000000000000000000000000815260040161211e90612cbf565b60405180910390fd5b61213360008383611e4f565b6001600360008473ffffffffffffffffffffffffffffffffffffffff1673ffffffffffffffffffffffffffffffffffffffff16815260200190815260200160002060008282546121839190612ee8565b92505081905550816002600083815260200190815260200160002060006101000a81548173ffffffffffffffffffffffffffffffffffffffff021916908373ffffffffffffffffffffffffffffffffffffffff160217905550808273ffffffffffffffffffffffffffffffffffffffff16600073ffffffffffffffffffffffffffffffffffffffff167fddf252ad1be2c89b69c2b068fc378daa952ba7f163c4a11628f55a4df523b3ef60405160405180910390a461224460008383611e54565b5050565b828054612254906130b3565b90600052602060002090601f01602090048101928261227657600085556122bd565b82601f1061228f57805160ff19168380011785556122bd565b828001600101855582156122bd579182015b828111156122bc5782518255916020019190600101906122a1565b5b5090506122ca91906122ce565b5090565b5b808211156122e75760008160009055506001016122cf565b5090565b60006122fe6122f984612e5f565b612e3a565b90508281526020810184848401111561231657600080fd5b612321848285613071565b509392505050565b60008135905061233881613782565b92915050565b60008135905061234d81613799565b92915050565b600081359050612362816137b0565b92915050565b600081519050612377816137b0565b92915050565b600082601f83011261238e57600080fd5b813561239e8482602086016122eb565b91505092915050565b6000813590506123b6816137c7565b92915050565b6000602082840312156123ce57600080fd5b60006123dc84828501612329565b91505092915050565b600080604083850312156123f857600080fd5b600061240685828601612329565b925050602061241785828601612329565b9150509250929050565b60008060006060848603121561243657600080fd5b600061244486828701612329565b935050602061245586828701612329565b9250506040612466868287016123a7565b9150509250925092565b6000806000806080858703121561248657600080fd5b600061249487828801612329565b94505060206124a587828801612329565b93505060406124b6878288016123a7565b925050606085013567ffffffffffffffff8111156124d357600080fd5b6124df8782880161237d565b91505092959194509250565b600080604083850312156124fe57600080fd5b600061250c85828601612329565b925050602061251d8582860161233e565b9150509250929050565b6000806040838503121561253a57600080fd5b600061254885828601612329565b9250506020612559858286016123a7565b9150509250929050565b60006020828403121561257557600080fd5b600061258384828501612353565b91505092915050565b60006020828403121561259e57600080fd5b60006125ac84828501612368565b91505092915050565b6000602082840312156125c757600080fd5b60006125d5848285016123a7565b91505092915050565b6125e781612ffd565b82525050565b6125f68161300f565b82525050565b600061260782612ea5565b6126118185612ebb565b9350612621818560208601613080565b61262a8161324c565b840191505092915050565b600061264082612eb0565b61264a8185612ecc565b935061265a818560208601613080565b6126638161324c565b840191505092915050565b600061267982612eb0565b6126838185612edd565b9350612693818560208601613080565b80840191505092915050565b600081546126ac816130b3565b6126b68186612edd565b945060018216600081146126d157600181146126e257612715565b60ff19831686528186019350612715565b6126eb85612e90565b60005b8381101561270d578154818901526001820191506020810190506126ee565b838801955050505b50505092915050565b600061272b603283612ecc565b91506127368261325d565b604082019050919050565b600061274e602583612ecc565b9150612759826132ac565b604082019050919050565b6000612771601c83612ecc565b915061277c826132fb565b602082019050919050565b6000612794600a83612edd565b915061279f82613324565b600a82019050919050565b60006127b7602483612ecc565b91506127c28261334d565b604082019050919050565b60006127da601983612ecc565b91506127e58261339c565b602082019050919050565b60006127fd606383612edd565b9150612808826133c5565b606382019050919050565b6000612820600b83612edd565b915061282b82613460565b600b82019050919050565b6000612843600d83612edd565b915061284e82613489565b600d82019050919050565b6000612866602983612ecc565b9150612871826134b2565b604082019050919050565b6000612889602e83612ecc565b915061289482613501565b604082019050919050565b60006128ac600283612edd565b91506128b782613550565b600282019050919050565b60006128cf603e83612ecc565b91506128da82613579565b604082019050919050565b60006128f2602083612ecc565b91506128fd826135c8565b602082019050919050565b6000612915600a83612edd565b9150612920826135f1565b600a82019050919050565b6000612938601883612ecc565b91506129438261361a565b602082019050919050565b600061295b602183612ecc565b915061296682613643565b604082019050919050565b600061297e600a83612edd565b915061298982613692565b600a82019050919050565b60006129a1601d83612edd565b91506129ac826136bb565b601d82019050919050565b60006129c4602883612ecc565b91506129cf826136e4565b604082019050919050565b60006129e7602e83612ecc565b91506129f282613733565b604082019050919050565b612a0681613067565b82525050565b6000612a18828461266e565b915081905092915050565b6000612a2f828561266e565b9150612a3b828461266e565b91508190509392505050565b6000612a53828661266e565b9150612a5f828561266e565b9150612a6b828461266e565b9150819050949350505050565b6000612a84828561269f565b9150612a90828461266e565b9150612a9b82612836565b91508190509392505050565b6000612ab282612787565b9150612abe828461266e565b915081905092915050565b6000612ad482612813565b9150612ae0828461266e565b915081905092915050565b6000612af682612908565b9150612b02828561266e565b9150612b0d826127f0565b9150612b19828461266e565b9150612b248261289f565b91508190509392505050565b6000612b3b82612971565b9150612b47828461266e565b915081905092915050565b6000612b5d82612994565b9150612b69828461266e565b915081905092915050565b6000602082019050612b8960008301846125de565b92915050565b6000608082019050612ba460008301876125de565b612bb160208301866125de565b612bbe60408301856129fd565b8181036060830152612bd081846125fc565b905095945050505050565b6000604082019050612bf060008301856125de565b612bfd60208301846129fd565b9392505050565b6000602082019050612c1960008301846125ed565b92915050565b60006020820190508181036000830152612c398184612635565b905092915050565b60006060820190508181036000830152612c5b8186612635565b9050612c6a60208301856129fd565b612c7760408301846125de565b949350505050565b60006020820190508181036000830152612c988161271e565b9050919050565b60006020820190508181036000830152612cb881612741565b9050919050565b60006020820190508181036000830152612cd881612764565b9050919050565b60006020820190508181036000830152612cf8816127aa565b9050919050565b60006020820190508181036000830152612d18816127cd565b9050919050565b60006020820190508181036000830152612d3881612859565b9050919050565b60006020820190508181036000830152612d588161287c565b9050919050565b60006020820190508181036000830152612d78816128c2565b9050919050565b60006020820190508181036000830152612d98816128e5565b9050919050565b60006020820190508181036000830152612db88161292b565b9050919050565b60006020820190508181036000830152612dd88161294e565b9050919050565b60006020820190508181036000830152612df8816129b7565b9050919050565b60006020820190508181036000830152612e18816129da565b9050919050565b6000602082019050612e3460008301846129fd565b92915050565b6000612e44612e55565b9050612e5082826130e5565b919050565b6000604051905090565b600067ffffffffffffffff821115612e7a57612e7961321d565b5b612e838261324c565b9050602081019050919050565b60008190508160005260206000209050919050565b600081519050919050565b600081519050919050565b600082825260208201905092915050565b600082825260208201905092915050565b600081905092915050565b6000612ef382613067565b9150612efe83613067565b9250827fffffffffffffffffffffffffffffffffffffffffffffffffffffffffffffffff03821115612f3357612f32613190565b5b828201905092915050565b6000612f4982613067565b9150612f5483613067565b925082612f6457612f636131bf565b5b828204905092915050565b6000612f7a82613067565b9150612f8583613067565b9250817fffffffffffffffffffffffffffffffffffffffffffffffffffffffffffffffff0483118215151615612fbe57612fbd613190565b5b828202905092915050565b6000612fd482613067565b9150612fdf83613067565b925082821015612ff257612ff1613190565b5b828203905092915050565b600061300882613047565b9050919050565b60008115159050919050565b60007fffffffff0000000000000000000000000000000000000000000000000000000082169050919050565b600073ffffffffffffffffffffffffffffffffffffffff82169050919050565b6000819050919050565b82818337600083830152505050565b60005b8381101561309e578082015181840152602081019050613083565b838111156130ad576000848401525b50505050565b600060028204905060018216806130cb57607f821691505b602082108114156130df576130de6131ee565b5b50919050565b6130ee8261324c565b810181811067ffffffffffffffff8211171561310d5761310c61321d565b5b80604052505050565b600061312182613067565b91507fffffffffffffffffffffffffffffffffffffffffffffffffffffffffffffffff82141561315457613153613190565b5b600182019050919050565b600061316a82613067565b915061317583613067565b925082613185576131846131bf565b5b828206905092915050565b7f4e487b7100000000000000000000000000000000000000000000000000000000600052601160045260246000fd5b7f4e487b7100000000000000000000000000000000000000000000000000000000600052601260045260246000fd5b7f4e487b7100000000000000000000000000000000000000000000000000000000600052602260045260246000fd5b7f4e487b7100000000000000000000000000000000000000000000000000000000600052604160045260246000fd5b6000601f19601f8301169050919050565b7f4552433732313a207472616e7366657220746f206e6f6e20455243373231526560008201527f63656976657220696d706c656d656e7465720000000000000000000000000000602082015250565b7f4552433732313a207472616e736665722066726f6d20696e636f72726563742060008201527f6f776e6572000000000000000000000000000000000000000000000000000000602082015250565b7f4552433732313a20746f6b656e20616c7265616479206d696e74656400000000600082015250565b7f54484952445f574f524400000000000000000000000000000000000000000000600082015250565b7f4552433732313a207472616e7366657220746f20746865207a65726f2061646460008201527f7265737300000000000000000000000000000000000000000000000000000000602082015250565b7f4552433732313a20617070726f766520746f2063616c6c657200000000000000600082015250565b7f222c20226465736372697074696f6e223a20224120686967686c79206163636c60008201527f61696d656420636f6c6c656374696f6e206f6620737175617265732e222c202260208201527f696d616765223a2022646174613a696d6167652f7376672b786d6c3b6261736560408201527f36342c0000000000000000000000000000000000000000000000000000000000606082015250565b7f5345434f4e445f574f5244000000000000000000000000000000000000000000600082015250565b7f3c2f746578743e3c2f7376673e00000000000000000000000000000000000000600082015250565b7f4552433732313a2061646472657373207a65726f206973206e6f74206120766160008201527f6c6964206f776e65720000000000000000000000000000000000000000000000602082015250565b7f45524337323155524953746f726167653a2055524920736574206f66206e6f6e60008201527f6578697374656e7420746f6b656e000000000000000000000000000000000000602082015250565b7f227d000000000000000000000000000000000000000000000000000000000000600082015250565b7f4552433732313a20617070726f76652063616c6c6572206973206e6f7420746f60008201527f6b656e206f776e6572206e6f7220617070726f76656420666f7220616c6c0000602082015250565b7f4552433732313a206d696e7420746f20746865207a65726f2061646472657373600082015250565b7f7b226e616d65223a202200000000000000000000000000000000000000000000600082015250565b7f4552433732313a20696e76616c696420746f6b656e2049440000000000000000600082015250565b7f4552433732313a20617070726f76616c20746f2063757272656e74206f776e6560008201527f7200000000000000000000000000000000000000000000000000000000000000602082015250565b7f46495253545f574f524400000000000000000000000000000000000000000000600082015250565b7f646174613a6170706c69636174696f6e2f6a736f6e3b6261736536342c000000600082015250565b7f4e4654277320686173206265656e207265616368656420746f206974206c696d60008201527f6974206f66203521000000000000000000000000000000000000000000000000602082015250565b7f4552433732313a2063616c6c6572206973206e6f7420746f6b656e206f776e6560008201527f72206e6f7220617070726f766564000000000000000000000000000000000000602082015250565b61378b81612ffd565b811461379657600080fd5b50565b6137a28161300f565b81146137ad57600080fd5b50565b6137b98161301b565b81146137c457600080fd5b50565b6137d081613067565b81146137db57600080fd5b5056fe416e204e465420772f20494420257320686173206265656e206d696e74656420746f2025734142434445464748494a4b4c4d4e4f505152535455565758595a6162636465666768696a6b6c6d6e6f707172737475767778797a303132333435363738392b2fa264697066735822122039ec291d1857d7ee3832c993706457421dbb51c0d0c520ee58d63aa768a58b2e64736f6c634300080100333c73766720786d6c6e733d27687474703a2f2f7777772e77332e6f72672f323030302f73766727207072657365727665417370656374526174696f3d27784d696e594d696e206d656574272076696577426f783d273020302033353020333530273e3c7374796c653e2e62617365207b2066696c6c3a2077686974653b20666f6e742d66616d696c793a2073657269663b20666f6e742d73697a653a20323470783b207d3c2f7374796c653e3c726563742077696474683d273130302527206865696768743d2731303025272066696c6c3d27626c61636b27202f3e3c7465787420783d273530252720793d273530252720636c6173733d27626173652720646f6d696e616e742d626173656c696e653d276d6964646c652720746578742d616e63686f723d276d6964646c65273e",
  "linkReferences": {},
  "deployedLinkReferences": {}
}